{
  "contractName": "AddressBook",
  "abi": [
    {
      "constant": true,
      "inputs": [],
      "name": "owner",
      "outputs": [
        {
          "name": "",
          "type": "address"
        }
      ],
      "payable": false,
      "stateMutability": "view",
      "type": "function"
    },
    {
      "constant": false,
      "inputs": [
        {
          "name": "newOwner",
          "type": "address"
        }
      ],
      "name": "transferOwnership",
      "outputs": [],
      "payable": false,
      "stateMutability": "nonpayable",
      "type": "function"
    },
    {
      "inputs": [],
      "payable": false,
      "stateMutability": "nonpayable",
      "type": "constructor"
    },
    {
      "anonymous": false,
      "inputs": [
        {
          "indexed": false,
          "name": "newAddress",
          "type": "address"
        }
      ],
      "name": "AddressAdded",
      "type": "event"
    },
    {
      "anonymous": false,
      "inputs": [
        {
          "indexed": false,
          "name": "removedAddress",
          "type": "address"
        }
      ],
      "name": "AddressRemoved",
      "type": "event"
    },
    {
      "anonymous": false,
      "inputs": [],
      "name": "AddressBookCleared",
      "type": "event"
    },
    {
      "anonymous": false,
      "inputs": [
        {
          "indexed": true,
          "name": "previousOwner",
          "type": "address"
        },
        {
          "indexed": true,
          "name": "newOwner",
          "type": "address"
        }
      ],
      "name": "OwnershipTransferred",
      "type": "event"
    },
    {
      "constant": false,
      "inputs": [
        {
          "name": "newAddress",
          "type": "address"
        }
      ],
      "name": "add",
      "outputs": [],
      "payable": false,
      "stateMutability": "nonpayable",
      "type": "function"
    },
    {
      "constant": false,
      "inputs": [
        {
          "name": "_address",
          "type": "address"
        }
      ],
      "name": "remove",
      "outputs": [],
      "payable": false,
      "stateMutability": "nonpayable",
      "type": "function"
    },
    {
      "constant": false,
      "inputs": [],
      "name": "clear",
      "outputs": [],
      "payable": false,
      "stateMutability": "nonpayable",
      "type": "function"
    },
    {
      "constant": true,
      "inputs": [
        {
          "name": "_address",
          "type": "address"
        }
      ],
      "name": "contains",
      "outputs": [
        {
          "name": "",
          "type": "bool"
        }
      ],
      "payable": false,
      "stateMutability": "view",
      "type": "function"
    },
    {
      "constant": true,
      "inputs": [],
      "name": "get",
      "outputs": [
        {
          "name": "",
          "type": "address[]"
        }
      ],
      "payable": false,
      "stateMutability": "view",
      "type": "function"
    }
  ],
  "bytecode": "0x6060604052341561000f57600080fd5b336000806101000a81548173ffffffffffffffffffffffffffffffffffffffff021916908373ffffffffffffffffffffffffffffffffffffffff160217905550610c228061005e6000396000f300606060405260043610610083576000357c0100000000000000000000000000000000000000000000000000000000900463ffffffff1680630a3b0a4f1461008857806329092d0e146100c157806352efea6e146100fa5780635dbe47e81461010f5780636d4ce63c146101605780638da5cb5b146101ca578063f2fde38b1461021f575b600080fd5b341561009357600080fd5b6100bf600480803573ffffffffffffffffffffffffffffffffffffffff16906020019091905050610258565b005b34156100cc57600080fd5b6100f8600480803573ffffffffffffffffffffffffffffffffffffffff1690602001909190505061046d565b005b341561010557600080fd5b61010d6106f6565b005b341561011a57600080fd5b610146600480803573ffffffffffffffffffffffffffffffffffffffff16906020019091905050610841565b604051808215151515815260200191505060405180910390f35b341561016b57600080fd5b610173610897565b6040518080602001828103825283818151815260200191508051906020019060200280838360005b838110156101b657808201518184015260208101905061019b565b505050509050019250505060405180910390f35b34156101d557600080fd5b6101dd61092b565b604051808273ffffffffffffffffffffffffffffffffffffffff1673ffffffffffffffffffffffffffffffffffffffff16815260200191505060405180910390f35b341561022a57600080fd5b610256600480803573ffffffffffffffffffffffffffffffffffffffff16906020019091905050610950565b005b6000809054906101000a900473ffffffffffffffffffffffffffffffffffffffff1673ffffffffffffffffffffffffffffffffffffffff163373ffffffffffffffffffffffffffffffffffffffff161415156102b357600080fd5b80600073ffffffffffffffffffffffffffffffffffffffff168173ffffffffffffffffffffffffffffffffffffffff16141515156102f057600080fd5b81600260008273ffffffffffffffffffffffffffffffffffffffff1673ffffffffffffffffffffffffffffffffffffffff16815260200190815260200160002060009054906101000a900460ff1615151561034a57600080fd5b6001805480600101828161035e9190610b44565b9160005260206000209001600085909190916101000a81548173ffffffffffffffffffffffffffffffffffffffff021916908373ffffffffffffffffffffffffffffffffffffffff160217905550506001600260008573ffffffffffffffffffffffffffffffffffffffff1673ffffffffffffffffffffffffffffffffffffffff16815260200190815260200160002060006101000a81548160ff0219169083151502179055507fa226db3f664042183ee0281230bba26cbf7b5057e50aee7f25a175ff45ce4d7f83604051808273ffffffffffffffffffffffffffffffffffffffff1673ffffffffffffffffffffffffffffffffffffffff16815260200191505060405180910390a1505050565b6000809054906101000a900473ffffffffffffffffffffffffffffffffffffffff1673ffffffffffffffffffffffffffffffffffffffff163373ffffffffffffffffffffffffffffffffffffffff161415156104c857600080fd5b80600073ffffffffffffffffffffffffffffffffffffffff168173ffffffffffffffffffffffffffffffffffffffff161415151561050557600080fd5b81600260008273ffffffffffffffffffffffffffffffffffffffff1673ffffffffffffffffffffffffffffffffffffffff16815260200190815260200160002060009054906101000a900460ff16151561055e57600080fd5b60018080549050141561057e57600160006105799190610b70565b610636565b60018080805490500381548110151561059357fe5b906000526020600020900160009054906101000a900473ffffffffffffffffffffffffffffffffffffffff1660016105ca85610aa5565b8154811015156105d657fe5b906000526020600020900160006101000a81548173ffffffffffffffffffffffffffffffffffffffff021916908373ffffffffffffffffffffffffffffffffffffffff16021790555060018054809190600190036106349190610b91565b505b6000600260008573ffffffffffffffffffffffffffffffffffffffff1673ffffffffffffffffffffffffffffffffffffffff16815260200190815260200160002060006101000a81548160ff0219169083151502179055507f24a12366c02e13fe4a9e03d86a8952e85bb74a456c16e4a18b6d8295700b74bb83604051808273ffffffffffffffffffffffffffffffffffffffff1673ffffffffffffffffffffffffffffffffffffffff16815260200191505060405180910390a1505050565b60008060009054906101000a900473ffffffffffffffffffffffffffffffffffffffff1673ffffffffffffffffffffffffffffffffffffffff163373ffffffffffffffffffffffffffffffffffffffff1614151561075357600080fd5b600090505b6001805490508110156108045760006002600060018481548110151561077a57fe5b906000526020600020900160009054906101000a900473ffffffffffffffffffffffffffffffffffffffff1673ffffffffffffffffffffffffffffffffffffffff1673ffffffffffffffffffffffffffffffffffffffff16815260200190815260200160002060006101000a81548160ff0219169083151502179055508080600101915050610758565b600160006108129190610b70565b7fdaf1a96783c0da857be3bf7ed99ee304a6e1e181f2bf6a2726b5cb072f631ec760405160405180910390a150565b6000600260008373ffffffffffffffffffffffffffffffffffffffff1673ffffffffffffffffffffffffffffffffffffffff16815260200190815260200160002060009054906101000a900460ff169050919050565b61089f610bbd565b600180548060200260200160405190810160405280929190818152602001828054801561092157602002820191906000526020600020905b8160009054906101000a900473ffffffffffffffffffffffffffffffffffffffff1673ffffffffffffffffffffffffffffffffffffffff16815260200190600101908083116108d7575b5050505050905090565b6000809054906101000a900473ffffffffffffffffffffffffffffffffffffffff1681565b6000809054906101000a900473ffffffffffffffffffffffffffffffffffffffff1673ffffffffffffffffffffffffffffffffffffffff163373ffffffffffffffffffffffffffffffffffffffff161415156109ab57600080fd5b600073ffffffffffffffffffffffffffffffffffffffff168173ffffffffffffffffffffffffffffffffffffffff16141515156109e757600080fd5b8073ffffffffffffffffffffffffffffffffffffffff166000809054906101000a900473ffffffffffffffffffffffffffffffffffffffff1673ffffffffffffffffffffffffffffffffffffffff167f8be0079c531659141344cd1fd0a4f28419497f9722a3daafe3b4186f6b6457e060405160405180910390a3806000806101000a81548173ffffffffffffffffffffffffffffffffffffffff021916908373ffffffffffffffffffffffffffffffffffffffff16021790555050565b600080600090505b600180549050811015610b3d57600181815481101515610ac957fe5b906000526020600020900160009054906101000a900473ffffffffffffffffffffffffffffffffffffffff1673ffffffffffffffffffffffffffffffffffffffff168373ffffffffffffffffffffffffffffffffffffffff161415610b3057809150610b3e565b8080600101915050610aad565b5b50919050565b815481835581811511610b6b57818360005260206000209182019101610b6a9190610bd1565b5b505050565b5080546000825590600052602060002090810190610b8e9190610bd1565b50565b815481835581811511610bb857818360005260206000209182019101610bb79190610bd1565b5b505050565b602060405190810160405280600081525090565b610bf391905b80821115610bef576000816000905550600101610bd7565b5090565b905600a165627a7a72305820b3700486c9c4007c61b18f03eb41e737082876c954ff298e6d7fb3cc8829ae890029",
  "source": "pragma solidity 0.4.19;\n\nimport { Ownable } from \"zeppelin-solidity/contracts/ownership/Ownable.sol\";\n\n/**\n * @title AddressBook (AB)\n * @dev Allows to store addresses in contract\n * @author Wojciech Harzowski (https://github.com/harzo/)\n */\ncontract AddressBook is Ownable {\n\n    /**\n     * @dev Stores addresses added to AB\n     */\n    address[] private book;\n\n    /**\n     * @dev Indicates if address exists in AB\n     */\n    mapping (address => bool) private existence;\n\n    modifier onlyValidAddress(address _address) {\n        require(_address != address(0));\n        _;\n    }\n\n    modifier onlyExisting(address _address) {\n        require(existence[_address]);\n        _;\n    }\n\n    modifier onlyNotExisting(address _address) {\n        require(!existence[_address]);\n        _;\n    }\n\n    function AddressBook() public {\n\n    }\n\n    /**\n     * @dev New address has been added to AB\n     * @param newAddress address Address added to AB\n     */\n    event AddressAdded(address newAddress);\n\n    /**\n     * @dev Existing address has been removed from AB\n     * @param removedAddress address Address removed from AB\n     */\n    event AddressRemoved(address removedAddress);\n\n    /**\n     * @dev Address Book has been cleared\n     */\n    event AddressBookCleared();\n\n    /**\n     * @dev Adds new address to AB and sets its existence\n     * @param newAddress address Address which should be added to AB\n     */\n    function add(address newAddress)\n        public\n        onlyOwner\n        onlyValidAddress(newAddress)\n        onlyNotExisting(newAddress)\n    {\n        book.push(newAddress);\n        existence[newAddress] = true;\n\n        AddressAdded(newAddress);\n    }\n\n    /**\n     * @dev Removes existing address from AB and clears its existence\n     * @param _address address Address which should be removed from AB\n     */\n    function remove(address _address)\n        public\n        onlyOwner\n        onlyValidAddress(_address)\n        onlyExisting(_address)\n    {\n        if (book.length == 1) {\n            delete book;\n        } else {\n            book[index(_address)] = book[book.length - 1];\n            book.length--;\n        }\n        existence[_address] = false;\n\n        AddressRemoved(_address);\n    }\n\n    /**\n     * @dev Clears AB from all addresses\n     */\n    function clear()\n        public\n        onlyOwner\n    {\n        for (uint i = 0; i < book.length; i++) {\n            existence[book[i]] = false;\n        }\n\n        delete book;\n\n        AddressBookCleared();\n    }\n\n    /**\n     * @dev Checks if address exists in AB\n     * @param _address address Address to check\n     * @return Address existence indicator\n     */\n    function contains(address _address)\n        public\n        view\n        returns (bool)\n    {\n        return existence[_address];\n    }\n\n    /**\n     * @dev Gets stored in AB addresses\n     * @return Stored addresses\n     */\n    function get()\n        public\n        view\n        returns (address[])\n    {\n        return book;\n    }\n\n    /**\n     * @dev Returns address index in address storage\n     * @param _address address Address to check\n     * @return Address index\n     */\n    function index(address _address)\n        internal\n        view\n        returns (uint)\n    {\n        for (uint i = 0; i < book.length; i++) {\n            if (_address == book[i]) {\n                return i;\n            }\n        }\n    }\n}\n",
  "sourcePath": "/home/harzo/Projects/address-book2/contracts/AddressBook.sol",
  "compiler": {
    "name": "solc",
    "version": "0.4.19+commit.c4cbbb05.Emscripten.clang"
  },
  "schemaVersion": "1.0.1",
  "updatedAt": "2018-02-08T10:29:44.366Z"
}