{
  "contractName": "AddressBook",
  "abi": [
    {
      "constant": true,
      "inputs": [],
      "name": "owner",
      "outputs": [
        {
          "name": "",
          "type": "address"
        }
      ],
      "payable": false,
      "stateMutability": "view",
      "type": "function"
    },
    {
      "constant": false,
      "inputs": [
        {
          "name": "newOwner",
          "type": "address"
        }
      ],
      "name": "transferOwnership",
      "outputs": [],
      "payable": false,
      "stateMutability": "nonpayable",
      "type": "function"
    },
    {
      "inputs": [],
      "payable": false,
      "stateMutability": "nonpayable",
      "type": "constructor"
    },
    {
      "anonymous": false,
      "inputs": [
        {
          "indexed": false,
          "name": "newAddress",
          "type": "address"
        }
      ],
      "name": "AddressAdded",
      "type": "event"
    },
    {
      "anonymous": false,
      "inputs": [
        {
          "indexed": false,
          "name": "removedAddress",
          "type": "address"
        }
      ],
      "name": "AddressRemoved",
      "type": "event"
    },
    {
      "anonymous": false,
      "inputs": [],
      "name": "AddressBookCleared",
      "type": "event"
    },
    {
      "anonymous": false,
      "inputs": [
        {
          "indexed": true,
          "name": "previousOwner",
          "type": "address"
        },
        {
          "indexed": true,
          "name": "newOwner",
          "type": "address"
        }
      ],
      "name": "OwnershipTransferred",
      "type": "event"
    },
    {
      "constant": false,
      "inputs": [
        {
          "name": "newAddress",
          "type": "address"
        }
      ],
      "name": "add",
      "outputs": [],
      "payable": false,
      "stateMutability": "nonpayable",
      "type": "function"
    },
    {
      "constant": true,
      "inputs": [
        {
          "name": "_address",
          "type": "address"
        }
      ],
      "name": "contains",
      "outputs": [
        {
          "name": "",
          "type": "bool"
        }
      ],
      "payable": false,
      "stateMutability": "view",
      "type": "function"
    },
    {
      "constant": true,
      "inputs": [],
      "name": "get",
      "outputs": [
        {
          "name": "",
          "type": "address[]"
        }
      ],
      "payable": false,
      "stateMutability": "view",
      "type": "function"
    }
  ],
  "bytecode": "0x6060604052341561000f57600080fd5b336000806101000a81548173ffffffffffffffffffffffffffffffffffffffff021916908373ffffffffffffffffffffffffffffffffffffffff1602179055506106fe8061005e6000396000f30060606040526004361061006d576000357c0100000000000000000000000000000000000000000000000000000000900463ffffffff1680630a3b0a4f146100725780635dbe47e8146100ab5780636d4ce63c146100fc5780638da5cb5b14610166578063f2fde38b146101bb575b600080fd5b341561007d57600080fd5b6100a9600480803573ffffffffffffffffffffffffffffffffffffffff169060200190919050506101f4565b005b34156100b657600080fd5b6100e2600480803573ffffffffffffffffffffffffffffffffffffffff16906020019091905050610409565b604051808215151515815260200191505060405180910390f35b341561010757600080fd5b61010f61045f565b6040518080602001828103825283818151815260200191508051906020019060200280838360005b83811015610152578082015181840152602081019050610137565b505050509050019250505060405180910390f35b341561017157600080fd5b6101796104f3565b604051808273ffffffffffffffffffffffffffffffffffffffff1673ffffffffffffffffffffffffffffffffffffffff16815260200191505060405180910390f35b34156101c657600080fd5b6101f2600480803573ffffffffffffffffffffffffffffffffffffffff16906020019091905050610518565b005b6000809054906101000a900473ffffffffffffffffffffffffffffffffffffffff1673ffffffffffffffffffffffffffffffffffffffff163373ffffffffffffffffffffffffffffffffffffffff1614151561024f57600080fd5b80600073ffffffffffffffffffffffffffffffffffffffff168173ffffffffffffffffffffffffffffffffffffffff161415151561028c57600080fd5b81600260008273ffffffffffffffffffffffffffffffffffffffff1673ffffffffffffffffffffffffffffffffffffffff16815260200190815260200160002060009054906101000a900460ff161515156102e657600080fd5b600180548060010182816102fa919061066d565b9160005260206000209001600085909190916101000a81548173ffffffffffffffffffffffffffffffffffffffff021916908373ffffffffffffffffffffffffffffffffffffffff160217905550506001600260008573ffffffffffffffffffffffffffffffffffffffff1673ffffffffffffffffffffffffffffffffffffffff16815260200190815260200160002060006101000a81548160ff0219169083151502179055507fa226db3f664042183ee0281230bba26cbf7b5057e50aee7f25a175ff45ce4d7f83604051808273ffffffffffffffffffffffffffffffffffffffff1673ffffffffffffffffffffffffffffffffffffffff16815260200191505060405180910390a1505050565b6000600260008373ffffffffffffffffffffffffffffffffffffffff1673ffffffffffffffffffffffffffffffffffffffff16815260200190815260200160002060009054906101000a900460ff169050919050565b610467610699565b60018054806020026020016040519081016040528092919081815260200182805480156104e957602002820191906000526020600020905b8160009054906101000a900473ffffffffffffffffffffffffffffffffffffffff1673ffffffffffffffffffffffffffffffffffffffff168152602001906001019080831161049f575b5050505050905090565b6000809054906101000a900473ffffffffffffffffffffffffffffffffffffffff1681565b6000809054906101000a900473ffffffffffffffffffffffffffffffffffffffff1673ffffffffffffffffffffffffffffffffffffffff163373ffffffffffffffffffffffffffffffffffffffff1614151561057357600080fd5b600073ffffffffffffffffffffffffffffffffffffffff168173ffffffffffffffffffffffffffffffffffffffff16141515156105af57600080fd5b8073ffffffffffffffffffffffffffffffffffffffff166000809054906101000a900473ffffffffffffffffffffffffffffffffffffffff1673ffffffffffffffffffffffffffffffffffffffff167f8be0079c531659141344cd1fd0a4f28419497f9722a3daafe3b4186f6b6457e060405160405180910390a3806000806101000a81548173ffffffffffffffffffffffffffffffffffffffff021916908373ffffffffffffffffffffffffffffffffffffffff16021790555050565b8154818355818115116106945781836000526020600020918201910161069391906106ad565b5b505050565b602060405190810160405280600081525090565b6106cf91905b808211156106cb5760008160009055506001016106b3565b5090565b905600a165627a7a72305820228ad652d64f8370ee6f3eb7dfb6fe40e83a57670cb73c9e6b9c91c17962c8c90029",
  "source": "pragma solidity 0.4.19;\n\nimport { Ownable } from \"zeppelin-solidity/contracts/ownership/Ownable.sol\";\n\n/**\n * @title AddressBook\n * @dev Allows to store addresses in contract\n * @author Wojciech Harzowski (https://github.com/harzo/)\n */\ncontract AddressBook is Ownable {\n\n    address[] private book;\n\n    mapping (address => bool) private existence;\n\n    modifier onlyValidAddress(address _address) {\n        require(_address != address(0));\n        _;\n    }\n\n    modifier onlyExisting(address _address) {\n        require(existence[_address]);\n        _;\n    }\n\n    modifier onlyNotExisting(address _address) {\n        require(!existence[_address]);\n        _;\n    }\n\n    function AddressBook() public {\n\n    }\n\n    event AddressAdded(address newAddress);\n\n    event AddressRemoved(address removedAddress);\n\n    event AddressBookCleared();\n\n    function add(address newAddress)\n        public\n        onlyOwner\n        onlyValidAddress(newAddress)\n        onlyNotExisting(newAddress)\n    {\n        book.push(newAddress);\n        existence[newAddress] = true;\n\n        AddressAdded(newAddress);\n    }\n\n    function contains(address _address)\n        public\n        view\n        returns (bool)\n    {\n        return existence[_address];\n    }\n\n    function get()\n        public\n        view\n        returns (address[])\n    {\n        return book;\n    }\n}\n",
  "sourcePath": "/home/harzo/Projects/address-book2/contracts/AddressBook.sol",
  "compiler": {
    "name": "solc",
    "version": "0.4.19+commit.c4cbbb05.Emscripten.clang"
  },
  "schemaVersion": "1.0.1",
  "updatedAt": "2018-02-07T16:48:18.617Z"
}